S01A0000506F6C6C7574696F6E204465746563746F722E73726563EA
S11300000C94A7000C94BC000C94BC000C94BC0091
S11300100C94BC000C94BC000C94BC000C94BC006C
S11300200C94BC000C94BC000C94BC000C94BC005C
S11300300C94BC000C94BC000C94BC000C94BC004C
S11300400C94BC000C94BC000C94BC000C94BC003C
S11300500C94BC0000407A10F35A00A0724E1809A8
S11300600010A5D4E80000E87648170000E40B541B
S1130070020000CA9A3B000000E1F50500008096EA
S11300809800000040420F000000A086010000001C
S1130090102700000000E8030000000064000000D6
S11300A000000A00000000000100000000002C769F
S11300B0D888DC674F0823DFC1DFAE59E1B1B796BA
S11300C0E5E3E453C63AE651997696E8E6C2842617
S11300D0EB898C9B62ED407C6FFCEFBC9C9F40F2F3
S11300E0BAA56FA5F490055A2AF75C936B6CF9676F
S11300F06DC11BFCE0E40D47FEF520E6B500D0ED34
S1130100902E0300943577050080841E080000209B
S11301104E0A000000C80C333333330F986E128339
S11301201141EF8D2114893BE65516CFFEE6DB180D
S1130130D1844B381BF77C1D901DA4BBE4242032D2
S113014084725E228100C9F124ECA1E53D271124CB
S11301501FBECFE5D8E0DEBFCDBF10E0A0E6B0E023
S1130160EEEAFCE002C005900D92AA37B107D9F778
S11301700E9489010C9455060C940000DF9A86EACB
S11301808A95F1F700C0DF9886EA8A95F1F700C0F6
S11301900895CF93C82F98B382958F70907F982B32
S11301A098BBDE98DD980E94BE0098B38C2F8F70A8
S11301B0907F892B88BB0E94BE00CF91089587B39E
S11301C08F6087BB8AB3806E8ABB0E94BE0083EFB8
S11301D091E00197F1F700C0000083E390E00E94F2
S11301E0C90091E29A95F1F7000082E390E00E9441
S11301F0C90021E22A95F1F7000088E290E00E940C
S1130200C90081E28A95F1F700008CE090E00E9439
S1130210C90091E29A95F1F7000081E090E00E9414
S1130220C90087E893E10197F1F700C0000086E078
S113023090E00E94C9009FE926E881E091502040A7
S11302408040E1F700C000000895CF93C82F98B311
S113025082958F70907F982B98BBDE98DD9A0E94D0
S1130260BE0098B38C2F8F70907F892B88BB0E941F
S1130270BE00CF9108950F931F93CF93FC0180810B
S1130280882359F08F01C0E00E942501CF5FF80157
S1130290EC0FF11D80818111F7CFCF911F910F9148
S11302A00895CF93DF9300D000D0CDB7DEB790E8A8
S11302B0998390EC9A8394E99B8394ED9C83815079
S11302C0FE01E60FF11D9081890F0E94C90083E0B1
S11302D08A95F1F700000F900F900F900F90DF9127
S11302E0CF910895D09886B1876886B980E487B99C
S11302F008958770806487B9369A349BFECF349A08
S113030089EF90E00197F1F700C0000084B195B146
S11303100895CF93DF93CDB7DEB764970FB6F89403
S1130320DEBF0FBECDBF0E94DF000E94720180E6D7
S113033090E00E943B0180E00E947901BC01990F8A
S1130340880B990B0E94D60226EF38E24CE950E460
S11303500E94620320E030E040E251E40E94620225
S11303606B017C018E010F5F1F4F22E030E046E0FD
S113037050E00E94CF0320E030E040E151E4C701A7
S1130380B6010E94620320E030E040EA50E40E949B
S1130390620220E030E040E052E40E94F601065F91
S11303A01F4F22E030E045E050E00E94CF0362E0BE
S11303B080E00E945101CE0101960E943B018FED25
S11303C00E94250182E790E00E943B0184E790E0CF
S11303D00E943B01C8010E943B018FED0E94250150
S11303E086E790E00E943B01A6CF5058BB27AA277E
S11303F00E940D020C9428030E941A0338F00E94F4
S1130400210320F039F49F3F19F426F40C941703C8
S11304100EF4E095E7FB0C941103E92F0E943903D5
S113042058F3BA17620773078407950720F079F425
S1130430A6F50C945B030EF4E0950B2EBA2FA02DB9
S11304400B01B90190010C01CA01A0011124FF277D
S1130450591B99F0593F50F4503E68F11A16F04078
S1130460A22F232F342F4427585FF3CF4695379577
S11304702795A795F0405395C9F77EF41F16BA0B3C
S1130480620B730B840BBAF09150A1F0FF0FBB1FEA
S1130490661F771F881FC2F70EC0BA0F621F731F33
S11304A0841F48F4879577956795B795F7959E3F90
S11304B008F0B0CF9395880F08F09927EE0F979521
S11304C0879508950E9476020C9428030E942103C4
S11304D058F00E941A0340F029F45F3F29F00C946D
S11304E0110351110C945C030C9417030E943903FB
S11304F068F39923B1F3552391F3951B550BBB274F
S1130500AA2762177307840738F09F5F5F4F220F93
S1130510331F441FAA1FA9F335D00E2E3AF0E0E88A
S113052032D091505040E695001CCAF72BD0FE2FD4
S113053029D0660F771F881FBB1F26173707480768
S1130540AB07B0E809F0BB0B802DBF01FF27935820
S11305505F4F3AF09E3F510578F00C9411030C94D0
S11305605C035F3FE4F3983ED4F3869577956795F3
S1130570B795F7959F5FC9F7880F911D9695879555
S113058097F90895E1E0660F771F881FBB1F621774
S113059073078407BA0720F0621B730B840BBA0B32
S11305A0EE1F88F7E0950895E89409C097FB3EF4A0
S11305B090958095709561957F4F8F4F9F4F9923AC
S11305C0A9F0F92F96E9BB279395F695879577952A
S11305D06795B795F111F8CFFAF4BB0F11F460FFEA
S11305E01BC06F5F7F4F8F4F9F4F16C0882311F042
S11305F096E911C0772321F09EE8872F762F05C056
S1130600662371F096E8862F70E060E02AF09A95F0
S1130610660F771F881FDAF7880F9695879597F9E5
S1130620089597F99F6780E870E060E008959FEF70
S113063080EC089500240A94161617061806090675
S1130640089500240A941216130614060506089544
S1130650092E0394000C11F4882352F0BB0F40F4CC
S1130660BF2B11F460FF04C06F5F7F4F8F4F9F4F0C
S1130670089557FD9058440F551F59F05F3F71F08E
S11306804795880F97FB991F61F09F3F79F08795F5
S11306900895121613061406551FF2CF4695F1DF7E
S11306A008C0161617061806991FF1CF869571050E
S11306B0610508940895E894BB2766277727CB0142
S11306C097F908950E9475030C9428030E941A0355
S11306D038F00E94210320F0952311F00C941103AB
S11306E00C94170311240C945C030E94390370F3D7
S11306F0959FC1F3950F50E0551F629FF001729FC3
S1130700BB27F00DB11D639FAA27F00DB11DAA1FD1
S1130710649F6627B00DA11D661F829F2227B00D1E
S1130720A11D621F739FB00DA11D621F839FA00DA9
S1130730611D221F749F3327A00D611D231F849FF9
S1130740600D211D822F762F6A2F11249F57504050
S11307509AF0F1F088234AF0EE0FFF1FBB1F661FCB
S1130760771F881F91505040A9F79E3F510580F094
S11307700C9411030C945C035F3FE4F3983ED4F3B0
S1130780869577956795B795F795E7959F5FC1F738
S1130790FE2B880F911D9695879597F90895EF92F2
S11307A00F931F93CF93DF93E80147FD02C034E01A
S11307B001C034E1E42F440FFF0BF7FF03C0F195B0
S11307C0E195F109E32E022F2E2FAE010E94EF03D3
S11307D0CE01DF91CF911F910F91EF9008954F9229
S11307E05F926F927F929F92AF92BF92CF92DF926D
S11307F0EF92FF920F931F93CF93DF93CDB7DEB7A2
S113080029970FB6F894DEBF0FBECDBF6A01122F31
S1130810B02E2BE3201720F0FF24F394F00E02C037
S1130820BCE3FB2E0F2D27E0AE014F5F5F4F0E940C
S11308307D05AC018981982F9970913031F0E1FCEC
S113084006C0E0FE06C090E205C09DE203C09BE244
S113085001C090E0EE2DE07183FF3CC0911102C015
S113086083E001C084E0811718F4212F281B01C004
S113087020E0E1110BC0F601822F30E2882319F049
S113088031938150FBCFC20ED11C20E0992329F073
S1130890D6019C93F60131966F01C6010396E2FEE0
S11308A00AC03EE4D6013C9341E411964C9311975F
S11308B012963C9306C03EE6F601308341E641833E
S11308C03283FC01322F40E2332309F442C04193C6
S11308D03150FACF82FF44C0911102C083E001C0BD
S11308E084E0811718F4212F281B01C020E0E111B6
S11308F00BC0F601822F30E2882319F03193815026
S1130900FBCFC20ED11C20E0992329F0D6019C9381
S1130910F60131966F01C6010396E2FE0BC039E47D
S1130920D6013C933EE411963C93119736E412961B
S11309303C9307C039E6F60130833EE6318336E660
S11309403283FC01322F40E2332319F041933150BA
S1130950FBCFFC01E20FF11D10828EEF9FEFB7C0B9
S1130960F1E0911101C0F0E06F2F70E0141615064C
S113097024F49A012F5F3F4F02C021E030E0260F9C
S1130980371FBB2029F06B2D70E06F5F7F4F02C0D3
S113099060E070E0260F371F612F70E026173707DD
S11309A01CF4121B212F01C020E03E2D387159F494
S11309B0D601322F60E2332319F06D933150FBCF0F
S11309C0C20ED11C20E0FF2331F0D6019C93B60166
S11309D06F5F7F4F6B01E1110BC0F601922F30E383
S11309E0992319F031939150FBCFC20ED11C20E012
S11309F09F2D940F3A81782F7071A72E84FF03C026
S1130A00313309F49150191624F4993018F098E010
S1130A1001C091E0E42F852F57FF02C0E0E080E0A1
S1130A206E2F782FE0E0F0E0AEE29A2E3A01691AD8
S1130A3071082A01461A570A0B2D10E011950195E9
S1130A4011096F3F8FEF780729F4D6019C92C601F4
S1130A5001966C014617570784F0661677066CF406
S1130A607F01E40CF51CA1E0B0E0AC0FBD1FEA0E61
S1130A70FB1ED7011196BC9002C090E3B92E6150C1
S1130A8071093196C60101967C016017710724F043
S1130A90D601BC926C01D5CF6417750741F4363387
S1130AA020F4353321F4A11002C081E3B82EF601FD
S1130AB0B082F701822F90E2882319F0919381503C
S1130AC0FBCFF701E20FF11D108280E090E0299640
S1130AD00FB6F894DEBF0FBECDBFDF91CF911F914B
S1130AE00F91FF90EF90DF90CF90BF90AF909F90C9
S1130AF07F906F905F904F900895283008F027E022
S1130B003327DA01990F311D87FD91600096610545
S1130B10710539F432602E5F3D9330E32A95E1F795
S1130B2008959F3F30F080387105610509F03C5FFE
S1130B303C5F3D93913008F08068911DDF93CF9323
S1130B401F930F93FF92EF92192F987F9695E92F99
S1130B5096959695E90FFF27E255FF4F992733277E
S1130B60EE24FF24A701E70105900894079428F4D4
S1130B70360FE71EF81E491F511D660F771F881F89
S1130B80991F0694A1F70590079428F4E70EF81E20
S1130B90491F561FC11D770F881F991F661F069492
S1130BA0A1F70590079428F4F80E491F561FC71F94
S1130BB0D11D880F991F661F771F0694A1F7059012
S1130BC0079420F4490F561FC71FD81F990F661F9B
S1130BD0771F881F0694A9F784911095177041F028
S1130BE0D695C79557954795F794E7941A95C1F705
S1130BF0E4E5F0E06894159015913591659195912F
S1130C0005907FE27395E118F10A430B560BC90B6B
S1130C10D009C0F7E10CF11E431F561FC91FD01D98
S1130C207EF4703311F48A95E6CFE894015030F0E5
S1130C30080F0AF40027021708F4202F2395022F27
S1130C407A3328F079E37D932A95E9F710C07D93F0
S1130C502A9589F60694979567953795179517946D
S1130C60E118F10A430B560BC90BD00998F02395F0
S1130C707E9173957A3308F070E37C932013B8F770
S1130C807E9170617D9330F0839571E37D9370E381
S1130C902A95E1F71124EF90FF900F911F91CF91C6
S1110CA0DF91992787FD90950895F894FFCF72
S1130CAE2A2A2A54656D70657261747572652A2AD2
S10D0CBE2A00430028004629000024
S9030000FC
