S01000004144432D657870332E737265639F
S11300000C94A7000C94BC000C94BC000C94BC0091
S11300100C94BC000C94BC000C94BC000C94BC006C
S11300200C94BC000C94BC000C94BC000C94BC005C
S11300300C94BC000C94BC000C94BC000C94BC004C
S11300400C94BC000C94BC000C94BC000C94BC003C
S11300500C94BC0000407A10F35A00A0724E1809A8
S11300600010A5D4E80000E87648170000E40B541B
S1130070020000CA9A3B000000E1F50500008096EA
S11300809800000040420F000000A086010000001C
S1130090102700000000E8030000000064000000D6
S11300A000000A00000000000100000000002C769F
S11300B0D888DC674F0823DFC1DFAE59E1B1B796BA
S11300C0E5E3E453C63AE651997696E8E6C2842617
S11300D0EB898C9B62ED407C6FFCEFBC9C9F40F2F3
S11300E0BAA56FA5F490055A2AF75C936B6CF9676F
S11300F06DC11BFCE0E40D47FEF520E6B500D0ED34
S1130100902E0300943577050080841E080000209B
S11301104E0A000000C80C333333330F986E128339
S11301201141EF8D2114893BE65516CFFEE6DB180D
S1130130D1844B381BF77C1D901DA4BBE4242032D2
S113014084725E228100C9F124ECA1E53D271124CB
S11301501FBECFE5D8E0DEBFCDBF10E0A0E6B0E023
S1130160EAE9FDE002C005900D92AA36B107D9F77D
S11301700E9409030C94CB060C940000672B09F031
S11301809FC0009711F4D89808958130910511F417
S1130190D99808958230910511F4DA98089583303E
S11301A0910511F4DB9808958430910511F4DC98DD
S11301B008958530910511F4DD98089586309105F0
S11301C011F4DE9808958730910511F4DF980895AD
S11301D08A30910511F4C09808958B30910511F47B
S11301E0C19808958C30910511F4C29808958D300A
S11301F0910511F4C39808958E30910511F4C498B3
S113020008958F30910511F4C598089580319105B2
S113021011F4C69808958131910511F4C798089591
S11302208431910511F4A89808958531910511F44C
S1130230A99808958631910511F4AA9808958731F3
S1130240910511F4AB9808958831910511F4AC9897
S113025008958931910511F4AD9808958A31910575
S113026011F4AE9808958B31910511F4AF98089567
S11302708E31910511F4909808958F31910511F400
S1130280919808958032910511F4929808958132DD
S1130290910511F4939808958232910511F494987C
S11302A008958332910511F4959808958432910547
S11302B011F496980895859709F09FC0979808952A
S11302C0009711F4D89A08958130910511F4D99AC0
S11302D008958230910511F4DA9A089583309105D6
S11302E011F4DB9A08958430910511F4DC9A089591
S11302F08530910511F4DD9A08958630910511F445
S1130300DE9A08958730910511F4DF9A08958A30B2
S1130310910511F4C09A08958B30910511F4C19A96
S113032008958C30910511F4C29A08958D30910589
S113033011F4C39A08958E30910511F4C49A089566
S11303408F30910511F4C59A08958031910511F407
S1130350C69A08958131910511F4C79A089584319C
S1130360910511F4A89A08958531910511F4A99A7B
S113037008958631910511F4AA9A0895873191055B
S113038011F4AB9A08958831910511F4AC9A08954B
S11303908931910511F4AD9A08958A31910511F4CA
S11303A0AE9A08958B31910511F4AF9A08958E3168
S11303B0910511F4909A08958F31910511F4919A51
S11303C008958032910511F4929A0895813291052D
S11303D011F4939A08958232910511F4949A089530
S11303E08332910511F4959A08958432910511F49C
S11303F0969A0895859709F4979A0895CF93C82FEC
S113040080FF07C061E070E082E290E00E94BE00DD
S113041006C060E070E082E290E00E94BE00C1FF8E
S113042007C061E070E083E290E00E94BE0006C075
S113043060E070E083E290E00E94BE00C2FF07C06B
S113044061E070E084E290E00E94BE0006C060E0DB
S113045070E084E290E00E94BE00C3FF07C061E048
S113046070E085E290E00E94BE0006C060E070E0AB
S113047085E290E00E94BE00CF910895CF93C82FEB
S113048060E070E08AE190E00E94BE008C2F0E9440
S1130490FE0161E070E08BE190E00E94BE008FE914
S11304A09FE00197F1F700C0000060E070E08BE18D
S11304B090E00E94BE008FE99FE00197F1F700C031
S11304C00000CF910895CF93C62F813059F480E86E
S11304D0860F82958F700E943E028C2F8F700E942F
S11304E03E020CC0823051F480EC860F82958F70EE
S11304F00E943E028C2F8F700E943E02CF9108957D
S113050080E00E94FE012FEF89EF90E021508040AF
S11305109040E1F700C0000083E00E943E028FE1BA
S11305209EE40197F1F700C0000083E00E943E02C0
S11305308FED9BEA0197F1F700C0000083E00E9471
S11305403E0282E00E943E0282E00E943E0288E077
S11305500E943E0280E00E943E028CE00E943E0225
S113056080E00E943E0286E00E943E020895CF93FE
S1130570C82F61E070E08AE190E00E94BE008C2FF9
S113058082958F700E94FE0161E070E08BE190E043
S11305900E94BE008FE99FE00197F1F700C00000C0
S11305A060E070E08BE190E00E94BE008FE99FE084
S11305B00197F1F700C000008C2F8F700E94FE019C
S11305C061E070E08BE190E00E94BE008FE99FE063
S11305D00197F1F700C0000060E070E08BE190E06B
S11305E00E94BE008FE99FE00197F1F700C0000070
S11305F0CF910895CF93DF93EC018881882331F064
S113060021960E94B70289918111FBCFDF91CF918E
S11306100895CF93DF93CDB7DEB727970FB6F8943D
S1130620DEBF0FBECDBF8FEF81BB84BB81E087B936
S113063084E886B90E94800261E081E00E9463023E
S113064080E690E00E94FA02369A3699FECF64B1B1
S113065085B170E0782B80E090E00E944A0320E0AE
S113066030E040E850E40E94870320E030E040E8B6
S11306705AE30E9487038E010F5F1F4F24E046E078
S11306800E94450461E082E00E946302C8010E9466
S1130690FA02DACFE89409C097FB3EF4909580956E
S11306A0709561957F4F8F4F9F4F9923A9F0F92F34
S11306B096E9BB279395F695879577956795B795B2
S11306C0F111F8CFFAF4BB0F11F460FF1BC06F5F98
S11306D07F4F8F4F9F4F16C0882311F096E911C0AA
S11306E0772321F09EE8872F762F05C0662371F0CB
S11306F096E8862F70E060E02AF09A95660F771FDF
S1130700881FDAF7880F9695879597F908950E94C0
S11307109A030C940B040E94FD0338F00E94040415
S113072020F0952311F00C94F4030C94FA03112493
S11307300C943F040E941C0470F3959FC1F3950F21
S113074050E0551F629FF001729FBB27F00DB11D51
S1130750639FAA27F00DB11DAA1F649F6627B00DE1
S1130760A11D661F829F2227B00DA11D621F739FCA
S1130770B00DA11D621F839FA00D611D221F749FD8
S11307803327A00D611D231F849F600D211D822F1F
S1130790762F6A2F11249F5750409AF0F1F0882346
S11307A04AF0EE0FFF1FBB1F661F771F881F915073
S11307B05040A9F79E3F510580F00C94F4030C942B
S11307C03F045F3FE4F3983ED4F3869577956795AD
S11307D0B795F795E7959F5FC1F7FE2B880F911D9D
S11307E09695879597F9089597F99F6780E870E043
S11307F060E008959FEF80EC089500240A94161693
S1130800170618060906089500240A9412161306FA
S1130810140605060895092E0394000C11F4882388
S113082052F0BB0F40F4BF2B11F460FF04C06F5FA4
S11308307F4F8F4F9F4F089557FD9058440F551F7A
S113084059F05F3F71F04795880F97FB991F61F04E
S11308509F3F79F087950895121613061406551FC5
S1130860F2CF4695F1DF08C0161617061806991F31
S1130870F1CF86957105610508940895E894BB2726
S113088066277727CB0197F90895EF920F931F936B
S1130890CF93DF93E80147FD02C034E001C034E1A7
S11308A0E42F440FFF0BF7FF03C0F195E195F10925
S11308B0E32E022F2E2FAE010E946504CE01DF919C
S11308C0CF911F910F91EF9008954F925F926F9285
S11308D07F929F92AF92BF92CF92DF92EF92FF925C
S11308E00F931F93CF93DF93CDB7DEB729970FB63E
S11308F0F894DEBF0FBECDBF6A01122FB02E2BE3DA
S1130900201720F0FF24F394F00E02C0BCE3FB2E6A
S11309100F2D27E0AE014F5F5F4F0E94F305AC013E
S11309208981982F9970913031F0E1FC06C0E0FE86
S113093006C090E205C09DE203C09BE201C090E0C6
S1130940EE2DE07183FF3CC0911102C083E001C031
S113095084E0811718F4212F281B01C020E0E11145
S11309600BC0F601822F30E2882319F031938150B5
S1130970FBCFC20ED11C20E0992329F0D6019C9311
S1130980F60131966F01C6010396E2FE0AC03EE409
S1130990D6013C9341E411964C93119712963C93E3
S11309A006C03EE6F601308341E641833283FC0112
S11309B0322F40E2332309F442C041933150FACF3D
S11309C082FF44C0911102C083E001C084E081171A
S11309D018F4212F281B01C020E0E1110BC0F601FF
S11309E0822F30E2882319F031938150FBCFC20E5D
S11309F0D11C20E0992329F0D6019C93F60131966D
S1130A006F01C6010396E2FE0BC039E4D6013C93A4
S1130A103EE411963C93119736E412963C9307C03A
S1130A2039E6F60130833EE6318336E63283FC0153
S1130A30322F40E2332319F041933150FBCFFC01B4
S1130A40E20FF11D10828EEF9FEFB7C0F1E091111C
S1130A5001C0F0E06F2F70E01416150624F49A011B
S1130A602F5F3F4F02C021E030E0260F371FBB202D
S1130A7029F06B2D70E06F5F7F4F02C060E070E083
S1130A80260F371F612F70E0261737071CF4121B3F
S1130A90212F01C020E03E2D387159F4D601322FA8
S1130AA060E2332319F06D933150FBCFC20ED11C99
S1130AB020E0FF2331F0D6019C93B6016F5F7F4F96
S1130AC06B01E1110BC0F601922F30E3992319F069
S1130AD031939150FBCFC20ED11C20E09F2D940F77
S1130AE03A81782F7071A72E84FF03C0313309F443
S1130AF09150191624F4993018F098E001C091E04F
S1130B00E42F852F57FF02C0E0E080E06E2F782F9E
S1130B10E0E0F0E0AEE29A2E3A01691A71082A0187
S1130B20461A570A0B2D10E01195019511096F3FD4
S1130B308FEF780729F4D6019C92C60101966C01C7
S1130B404617570784F0661677066CF47F01E40CA9
S1130B50F51CA1E0B0E0AC0FBD1FEA0EFB1ED701EF
S1130B601196BC9002C090E3B92E61507109319680
S1130B70C60101967C016017710724F0D601BC926E
S1130B806C01D5CF6417750741F4363320F435333F
S1130B9021F4A11002C081E3B82EF601B082F7015E
S1130BA0822F90E2882319F091938150FBCFF701B3
S1130BB0E20FF11D108280E090E029960FB6F894C0
S1130BC0DEBF0FBECDBFDF91CF911F910F91FF907C
S1130BD0EF90DF90CF90BF90AF909F907F906F90F9
S1130BE05F904F900895283008F027E03327DA010A
S1130BF0990F311D87FD916000966105710539F4E7
S1130C0032602E5F3D9330E32A95E1F708959F3FCC
S1130C1030F080387105610509F03C5F3C5F3D931D
S1130C20913008F08068911DDF93CF931F930F9349
S1130C30FF92EF92192F987F9695E92F96959695A6
S1130C40E90FFF27E255FF4F99273327EE24FF24AE
S1130C50A701E70105900894079428F4360FE71ECE
S1130C60F81E491F511D660F771F881F991F069490
S1130C70A1F70590079428F4E70EF81E491F561FA4
S1130C80C11D770F881F991F661F0694A1F7059051
S1130C90079428F4F80E491F561FC71FD11D880F4B
S1130CA0991F661F771F0694A1F70590079420F4F7
S1130CB0490F561FC71FD81F990F661F771F881F1C
S1130CC00694A9F784911095177041F0D695C795AD
S1130CD057954795F794E7941A95C1F7E4E5F0E042
S1130CE068941590159135916591959105907FE2E1
S1130CF07395E118F10A430B560BC90BD009C0F7E1
S1130D00E10CF11E431F561FC91FD01D7EF4703322
S1130D1011F48A95E6CFE894015030F0080F0AF4F4
S1130D200027021708F4202F2395022F7A3328F086
S1130D3079E37D932A95E9F710C07D932A9589F686
S1130D40069497956795379517951794E118F10AC6
S1130D50430B560BC90BD00998F023957E917395DC
S1130D607A3308F070E37C932013B8F77E917061B6
S1130D707D9330F0839571E37D9370E32A95E1F7D9
S1130D801124EF90FF900F911F91CF91DF9199273C
S10D0D9087FD90950895F894FFCFB5
S10D0D9A566F6C746167653A00003F
S9030000FC
