S01300004C434420446973706C61792E7372656348
S11300000C942A000C943F000C943F000C943F0085
S11300100C943F000C943F000C943F000C943F0060
S11300200C943F000C943F000C943F000C943F0050
S11300300C943F000C943F000C943F000C943F0040
S11300400C943F000C943F000C943F000C943F0030
S11300500C943F0011241FBECFE5D8E0DEBFCDBF16
S113006010E0A0E6B0E0E8E9F0E102C005900D92EE
S1130070A838B107D9F70E94F6020C944A080C94E8
S11300800000672B09F09FC0009711F4D8980895D9
S11300908130910511F4D99808958230910511F4B5
S11300A0DA9808958330910511F4DB98089584302B
S11300B0910511F4DC9808958530910511F4DD98CB
S11300C008958630910511F4DE98089587309105DE
S11300D011F4DF9808958A30910511F4C0980895B9
S11300E08B30910511F4C19808958C30910511F469
S11300F0C29808958D30910511F4C39808958E30F7
S1130100910511F4C49808958F30910511F4C598A0
S113011008958031910511F4C698089581319105AF
S113012011F4C79808958431910511F4A89808959D
S11301308531910511F4A99808958631910511F43A
S1130140AA9808958731910511F4AB9808958831E0
S1130150910511F4AC9808958931910511F4AD9885
S113016008958A31910511F4AE9808958B31910563
S113017011F4AF9808958E31910511F49098089573
S11301808F31910511F4919808958032910511F4FD
S1130190929808958132910511F4939808958232CA
S11301A0910511F4949808958332910511F495986A
S11301B008958432910511F496980895859709F06D
S11301C09FC097980895009711F4D89A08958130A4
S11301D0910511F4D99A08958230910511F4DA9AAF
S11301E008958330910511F4DB9A089584309105C4
S11301F011F4DC9A08958530910511F4DD9A08957F
S11302008630910511F4DE9A08958730910511F432
S1130210DF9A08958A30910511F4C09A08958B30BD
S1130220910511F4C19A08958C30910511F4C29A84
S113023008958D30910511F4C39A08958E30910577
S113024011F4C49A08958F30910511F4C59A089554
S11302508031910511F4C69A08958131910511F404
S1130260C79A08958431910511F4A89A08958531A7
S1130270910511F4A99A08958631910511F4AA9A69
S113028008958731910511F4AB9A08958831910549
S113029011F4AC9A08958931910511F4AD9A089539
S11302A08A31910511F4AE9A08958B31910511F4B8
S11302B0AF9A08958E31910511F4909A08958F3173
S11302C0910511F4919A08958032910511F4929A4E
S11302D008958132910511F4939A0895823291051B
S11302E011F4949A08958332910511F4959A08951E
S11302F08432910511F4969A0895859709F4979A92
S11303000895CF93C82F80FF07C061E070E082E2B8
S113031090E00E94410006C060E070E082E290E05C
S11303200E944100C1FF07C061E070E083E290E0F9
S11303300E94410006C060E070E083E290E00E9409
S11303404100C2FF07C061E070E084E290E00E94D7
S1130350410006C060E070E084E290E00E94410049
S1130360C3FF07C061E070E085E290E00E944100B5
S113037006C060E070E085E290E00E944100CF9109
S11303800895CF93C82F60E070E08AE190E00E9466
S113039041008C2F0E94810161E070E08BE190E0CC
S11303A00E94410089EF90E00197F1F700C000003E
S11303B060E070E08BE190E00E94410089EF90E002
S11303C00197F1F700C00000CF910895CF93C62F95
S11303D0813059F480E8860F82958F700E94C101A4
S11303E08C2F8F700E94C1010CC0823051F480ECBC
S11303F0860F82958F700E94C1018C2F8F700E948E
S1130400C101CF91089580E00E94810187E893E1C2
S11304100197F1F700C0000083E00E94C10181EE62
S113042094E00197F1F700C0000083E00E94C1014D
S11304308DEB9AE00197F1F700C0000083E00E9481
S1130440C10182E00E94C10182E00E94C10188E0F2
S11304500E94C10180E00E94C1018CE00E94C101A0
S113046080E00E94C10186E00E94C1010895CF93FB
S1130470C82F61E070E08AE190E00E9441008C2F77
S113048082958F700E94810161E070E08BE190E0C1
S11304900E94410089EF90E00197F1F700C000004D
S11304A060E070E08BE190E00E94410089EF90E011
S11304B00197F1F700C000008C2F8F700E9481011A
S11304C061E070E08BE190E00E94410089EF90E0F0
S11304D00197F1F700C0000060E070E08BE190E06C
S11304E00E94410089EF90E00197F1F700C00000FD
S11304F0CF910895CF93DF93EC018881882331F065
S113050021960E94370289918111FBCFDF91CF910F
S113051008953E9A86B1876886B9089597B18F7019
S1130520907F892B87B9369A3699FECF84B195B1DD
S113053008958F929F92AF92BF92EF92FF920F9382
S11305401F93CF93DF93CDB7DEB760970FB6F894C0
S1130550DEBF0FBECDBF4B015C010E94F0037F9351
S11305606F930F2EF0E6EF2EF0E0FF2EF02DFF92AA
S1130570EF928E010F5F1F4F1F930F930E9472051E
S1130580C8010E947A028EE20E94370220E030E025
S113059048EC52E4C501B4010E94DD040E94F0035A
S11305A0CB016AE070E00E944A059F938F93FF920B
S11305B0EF921F930F930E947205C8010E947A0262
S11305C00FB6F894DEBF0FBECDBF60960FB6F89499
S11305D0DEBF0FBECDBFDF91CF911F910F91FF9072
S11305E0EF90BF90AF909F908F9008958FEF81BB55
S11305F084BB0E9489020E94030280E00E948E0252
S1130600EC0160E081E00E94E60183E690E00E9454
S11306107A02BE0180E090E00E94260420E030E0EF
S113062040E151E40E94DD0420E030E040E85AE378
S11306300E94DD0420E030E040E752E40E94DD0443
S113064020E030E040EA50E40E947E036B017C012C
S11306500E9499026AE081E00E94E60120E030E015
S11306604CE052E4C701B6010E94D80418162CF4D9
S113067089E690E00E947A0213C020E030E040E76F
S113068051E4C701B6010E94EB0388232CF48EE6E3
S113069090E00E947A0204C084E790E00E947A020B
S11306A060E082E00E94E60181E00E948E02EC019B
S11306B08CE790E00E947A02BE0180E090E00E9404
S11306C0260420E030E040E151E40E94DD0420E013
S11306D030E040E85AE30E94DD0420E030E040ECE2
S11306E050E40E94DD040E9499026AE082E00E94C4
S11306F0E60183E890E00E947A027FCF5058BB273E
S1130700AA270E9496030C949E040E94900438F039
S11307100E94970420F039F49F3F19F426F40C94B6
S11307208D040EF4E095E7FB0C948704E92F0E94F6
S1130730AF0458F3BA17620773078407950720F0CC
S113074079F4A6F50C94D1040EF4E0950B2EBA2F8F
S1130750A02D0B01B90190010C01CA01A0011124C3
S1130760FF27591B99F0593F50F4503E68F11A166F
S1130770F040A22F232F342F4427585FF3CF469500
S113078037952795A795F0405395C9F77EF41F1622
S1130790BA0B620B730B840BBAF09150A1F0FF0FEC
S11307A0BB1F661F771F881FC2F70EC0BA0F621FD8
S11307B0731F841F48F4879577956795B795F795C8
S11307C09E3F08F0B0CF9395880F08F09927EE0F5D
S11307D09795879508950E94630408F481E008952D
S11307E00E94F7036894B1110C94D20408950E94F6
S11307F0B70488F09F5798F0B92F9927B751B0F0F4
S1130800E1F0660F771F881F991F1AF0BA95C9F790
S113081014C0B13091F00E94D104B1E008950C9459
S1130820D104672F782F8827B85F39F0B93FCCF30C
S1130830869577956795B395D9F73EF4909580950D
S1130840709561957F4F8F4F9F4F0895E89409C02D
S113085097FB3EF490958095709561957F4F8F4FEF
S11308609F4F9923A9F0F92F96E9BB279395F69505
S1130870879577956795B795F111F8CFFAF4BB0F83
S113088011F460FF1BC06F5F7F4F8F4F9F4F16C0E7
S1130890882311F096E911C0772321F09EE8872F71
S11308A0762F05C0662371F096E8862F70E060E02D
S11308B02AF09A95660F771F881FDAF7880F9695A6
S11308C0879597F90895990F0008550FAA0BE0E84A
S11308D0FEEF16161706E807F907C0F012161306FE
S11308E0E407F50798F0621B730B840B950B39F43E
S11308F00A2661F0232B242B252B21F408950A26A4
S113090009F4A140A6958FEF811D811D089597F9E3
S11309109F6780E870E060E008959FEF80EC0895A1
S113092000240A94161617061806090608950024CA
S11309300A9412161306140605060895092E039444
S1130940000C11F4882352F0BB0F40F4BF2B11F4B8
S113095060FF04C06F5F7F4F8F4F9F4F089557FD17
S11309609058440F551F59F05F3F71F04795880F19
S113097097FB991F61F09F3F79F0879508951216B0
S113098013061406551FF2CF4695F1DF08C016165C
S113099017061806991FF1CF86957105610508940D
S11309A00895E894BB2766277727CB0197F9089524
S11309B00E94630408F48FEF08950E94F0040C94DD
S11309C09E040E94900438F00E94970420F095231E
S11309D011F00C9487040C948D0411240C94D2040B
S11309E00E94AF0470F3959FC1F3950F50E0551F1B
S11309F0629FF001729FBB27F00DB11D639FAA2770
S1130A00F00DB11DAA1F649F6627B00DA11D661FBE
S1130A10829F2227B00DA11D621F739FB00DA11DDF
S1130A20621F839FA00D611D221F749F3327A00D99
S1130A30611D231F849F600D211D822F762F6A2F35
S1130A4011249F5750409AF0F1F088234AF0EE0F9A
S1130A50FF1FBB1F661F771F881F91505040A9F7C7
S1130A609E3F510580F00C9487040C94D2045F3FA0
S1130A70E4F3983ED4F3869577956795B795F79503
S1130A80E7959F5FC1F7FE2B880F911D969587957B
S1130A9097F9089597FB072E16F4009407D077FD75
S1130AA009D00E945E0507FC05D03EF4909581951F
S1130AB09F4F0895709561957F4F0895AA1BBB1BA6
S1130AC051E107C0AA1FBB1FA617B70710F0A61B4A
S1130AD0B70B881F991F5A95A9F780959095BC016B
S1130AE0CD010895AEE0B0E0E8E7F5E00C9421080C
S1130AF00D891E8986E08C831A8309838FEF9FE713
S1130B009E838D83AE01475E5F4F6F89788DCE01E2
S1130B1001960E9495052F813885F801E20FF31F95
S1130B2010822E96E4E00C943D08ACE0B0E0EBE9D2
S1130B30F5E00C9413087C016B018A01FC01178217
S1130B401682838181FFBDC1CE0101964C01F7015C
S1130B509381F60193FD859193FF81916F01882321
S1130B6009F4ABC1853239F493FD859193FF8191EA
S1130B706F01853229F4B70190E00E947D07E7CF29
S1130B80512C312C20E02032A0F48B3269F030F467
S1130B90803259F0833269F420612CC08D3239F0EF
S1130BA0803339F4216026C02260246023C0286089
S1130BB021C027FD27C030ED380F3A3078F426FFE6
S1130BC006C0FAE05F9E300D1124532E13C08AE054
S1130BD0389E300D1124332E20620CC08E3221F445
S1130BE026FD6BC1206406C08C3611F4206802C057
S1130BF0883641F4F60193FD859193FF81916F014D
S1130C008111C1CF982F9F7D9554933028F40C5FA8
S1130C101F4FFFE3F9830DC0833631F0833771F042
S1130C20833509F05BC022C0F801808189830E5F9F
S1130C301F4F44244394512C540115C03801F2E051
S1130C406F0E711CF801A080B18026FF03C0652DD2
S1130C5070E002C06FEF7FEFC5012C870E9472071E
S1130C602C0183012C852F77222E17C03801F2E046
S1130C706F0E711CF801A080B18026FF03C0652DA2
S1130C8070E002C06FEF7FEFC5012C870E946707F9
S1130C902C012C852068222E830123FC1BC0832D6C
S1130CA090E048165906B0F4B70180E290E00E9443
S1130CB07D073A94F4CFF50127FC859127FE8191B5
S1130CC05F01B70190E00E947D0731103A94F1E092
S1130CD04F1A51084114510471F7E5C0843611F0DC
S1130CE0893639F5F80127FF07C060817181828157
S1130CF093810C5F1F4F08C060817181072E000C27
S1130D00880B990B0E5F1F4F2F76722E97FF09C029
S1130D1090958095709561957F4F8F4F9F4F206878
S1130D20722E2AE030E0A4010E94B507A82EA8186C
S1130D3044C0853729F42F7EB22E2AE030E025C046
S1130D40F22FF97FBF2E8F36C1F018F4883579F071
S1130D50B4C0803719F0883721F0AFC02F2F20613D
S1130D60B22EB4FE0DC08B2D8460B82E09C024FFB2
S1130D700AC09F2F9660B92E06C028E030E005C057
S1130D8020E130E002C020E132E0F801B7FE07C004
S1130D9060817181828193810C5F1F4F06C06081E5
S1130DA0718180E090E00E5F1F4FA4010E94B5079F
S1130DB0A82EA818FB2DFF777F2E76FE0BC0372DAB
S1130DC03E7FA51450F474FE0AC072FC08C0372D8F
S1130DD03E7E05C0BA2C372D03C0BA2C01C0B52CF9
S1130DE034FF0DC0FE01EA0DF11D8081803311F442
S1130DF0397E09C032FF06C0B394B39404C0832F74
S1130E00867809F0B39433FD13C030FF06C05A2C22
S1130E10B31418F4530C5B18B32CB31468F4B7016F
S1130E2080E290E03C870E947D07B3943C85F5CF37
S1130E30B31410F43B1801C0312C34FF12C0B701B5
S1130E4080E390E03C870E947D073C8532FF17C019
S1130E5031FD03C088E790E002C088E590E0B70167
S1130E600CC0832F867859F031FF02C08BE201C099
S1130E7080E237FD8DE2B70190E00E947D07A51462
S1130E8038F4B70180E390E00E947D075A94F7CFCD
S1130E90AA94F401EA0DF11D8081B70190E00E944B
S1130EA07D07A110F5CF332009F451CEB70180E2BC
S1130EB090E00E947D073A94F6CFF70186819781EE
S1130EC002C08FEF9FEF2C96E2E10C942F08FC01F7
S1130ED00590615070400110D8F7809590958E0F61
S1130EE09F1F0895FC016150704001900110D8F7D4
S1130EF0809590958E0F9F1F08950F931F93CF9306
S1130F00DF93FB01238121FD03C08FEF9FEF28C0F6
S1130F1022FF16C046815781248135814217530729
S1130F2044F4A081B1819D012F5F3F4F3183208321
S1130F308C93268137812F5F3F4F3783268310C0E0
S1130F40EB01092F182F0084F185E02D0995892BD9
S1130F50E1F68E819F8101969F838E83812F902F4E
S1130F60DF91CF911F910F910895FA01AA2728309C
S1130F7051F1203181F1E8946F936E7F6E5F7F4F62
S1130F808F4F9F4FAF4FB1E03ED0B4E03CD0670FDE
S1130F90781F891F9A1FA11D680F791F8A1F911D31
S1130FA0A11D6A0F711D811D911DA11D20D009F481
S1130FB068943F912AE0269F11243019305D3193C3
S1130FC0DEF6CF010895462F4770405D4193B3E0AC
S1130FD00FD0C9F7F6CF462F4F70405D4A3318F053
S1130FE0495D31FD4052419302D0A9F7EACFB4E004
S1130FF0A6959795879577956795BA95C9F70097BC
S11310006105710508959B01AC010A2E069457955C
S1131010479537952795BA95C9F7620F731F841FB3
S1131020951FA01D08952F923F924F925F926F9249
S11310307F928F929F92AF92BF92CF92DF92EF9264
S1131040FF920F931F93CF93DF93CDB7DEB7CA1BE5
S1131050DB0B0FB6F894DEBF0FBECDBF09942A8810
S1131060398848885F846E847D848C849B84AA84B8
S1131070B984C884DF80EE80FD800C811B81AA8145
S1131080B981CE0FD11D0FB6F894DEBF0FBECDBF10
S10B1090ED010895F894FFCF6F
S113109825640054656D703A0020486F740020433D
S11310A86F6C6400204E6F726D616C00536F756EC7
S10B10B8643A002044420000E8
S9030000FC
